:100000000C9434000C9451000C9451000C94510049
:100010000C9451000C9451000C9451000C9451001C
:100020000C9451000C9451000C9451000C9453000A
:100030000C9451000C9451000C9451000C945100FC
:100040000C9451000C9451000C9451000C945100EC
:100050000C9451000C9451000C9451000C945100DC
:100060000C9451000C94510011241FBECFEFD8E026
:10007000DEBFCDBF11E0A0E0B1E0E0EEF1E002C0F4
:1000800005900D92A430B107D9F721E0A4E0B1E0CA
:1000900001C01D92A730B207E1F70E94D6000C9470
:1000A000EE000C9400001F920F920FB60F921124D5
:1000B0008F93809106018F5F809306018F910F903F
:1000C0000FBE0F901F9018958AB1806F8AB98BB1BF
:1000D0008BB9209A2898219A299808959BB19F70EE
:1000E000282F207F922B9BB92898299A3AE63A9597
:1000F000F1F700C02998EFE9FFE03197F1F700C070
:1001000000002BB12F70F0E18F9FC0011124822BD2
:100110008BB92898299A3AE63A95F1F700C02998C0
:100120008FE99FE00197F1F700C0000008959BB1AF
:100130009F70282F207F922B9BB9289A299A3AE604
:100140003A95F1F700C02998EFE9FFE03197F1F710
:1001500000C000002BB12F70F0E18F9FC00111246F
:10016000822B8BB9289A299A3AE63A95F1F700C082
:1001700029988FE99FE00197F1F700C000000895EA
:100180000F931F93CF93FC018081882359F08F0137
:10019000C0E00E949700CF5FF801EC0FF11D808155
:1001A0008111F7CFCF911F910F9108950E946400A4
:1001B00082E00E946E0088E20E946E008CE00E9445
:1001C0006E0081E00E946E0080E80E946E0080E078
:1001D00091E00E94C00080E090E00895F894FFCF85
:0401E00057656400FB
:00000001FF
