S00F00006C63645F7274632E737265633A
S11300000C9434000C9451000C9451000C94510045
S11300100C9451000C9451000C9451000C94510018
S11300200C9451000C9451000C9451000C946900F0
S11300300C9451000C9451000C9451000C945100F8
S11300400C9451000C9451000C9451000C945100E8
S11300500C9451000C9451000C9451000C945100D8
S11300600C9451000C94510011241FBECFEFD8E022
S1130070DEBFCDBF11E0A0E0B1E0EEECF2E002C0E3
S113008005900D92A231B107D9F721E0A2E1B1E0C8
S113009001C01D92A531B207E1F70E94AA000C9499
S11300A065010C940000E1E8F0E080818D608083BC
S11300B01092850010928400EFE6F0E08081826067
S11300C0808388E09DE390938900809388007894EE
S11300D008951F920F920FB60F9211248F9380915F
S11300E014018F5F809314018F910F900FBE0F90B6
S11300F01F9018958FEF8AB91BB8209A2898219AD7
S1130100299808958BB92898299A85ED8A95F1F74D
S11301100000299808958BB9289A299A85ED8A9523
S1130120F1F70000299808950F931F93CF93FC01D2
S11301308081882359F08F01C0E00E948B00CF5F3B
S1130140F801EC0FF11D80818111F7CFCF911F9140
S11301500F9108950E947A000E94530088E30E9440
S1130160820081E00E94820080E80E94820080E098
S113017091E00E949400CDEC80EC0E9482008BE020
S113018091E00E949400809113018C9F812D112491
S11301908695869586958C9F912D11249695969596
S11301A09695990F292F220F220F920F891B805D9C
S11301B00E948B00809113018C9F912D11249695A0
S11301C096959695990F292F220F220F920F891B2E
S11301D0805D0E948B008AE30E948B008091120153
S11301E08C9F812D11248695869586958C9F912DC3
S11301F01124969596959695990F292F220F220FE3
S1130200920F891B805D0E948B00809112018C9F4C
S1130210912D1124969596959695990F292F220F35
S1130220220F920F891B805D0E948B008AE30E943B
S11302308B00809114018C9F812D112486958695C5
S113024086958C9F912D1124969596959695990F48
S1130250292F220F220F920F891B805D0E948B0091
S1130260809114018C9F912D1124969596959695C5
S1130270990F292F220F220F920F891B805D0E9454
S11302808B00809114018B3338F01092140180910B
S113029012018F5F80931201809112018B3348F019
S11302A01092140110921201809113018F5F8093B8
S11302B01301809113018C3008F45ECF1092140165
S11102C0109212011092130157CFF894FFCF41
S11302CE2020202020636C6F636B0054696D6520C1
S10502DE3D00DD
S9030000FC
