S00B00006C63642E73726563E6
S11300000C9434000C9451000C9451000C94510045
S11300100C9451000C9451000C9451000C94510018
S11300200C9451000C9451000C9451000C946900F0
S11300300C9451000C9451000C9451000C945100F8
S11300400C9451000C9451000C9451000C945100E8
S11300500C9451000C9451000C9451000C945100D8
S11300600C9451000C94510011241FBECFEFD8E022
S1130070DEBFCDBF11E0A0E0B1E0E0ECF2E002C0F1
S113008005900D92A830B107D9F721E0A8E0B1E0BE
S113009001C01D92AB30B207E1F70E94AA000C9494
S11300A05E010C940000E1E8F0E080818D608083C3
S11300B01092850010928400EFE6F0E08081826067
S11300C0808388E09DE390938900809388007894EE
S11300D008951F920F920FB60F9211248F9380915F
S11300E00A018F5F80930A018F910F900FBE0F90CA
S11300F01F9018958FEF8AB91BB8209A2898219AD7
S1130100299808958BB92898299A85ED8A95F1F74D
S11301100000299808958BB9289A299A85ED8A9523
S1130120F1F70000299808950F931F93CF93FC01D2
S11301308081882359F08F01C0E00E948B00CF5F3B
S1130140F801EC0FF11D80818111F7CFCF911F9140
S11301500F9108950E947A000E94530088E30E9440
S1130160820081E00E948200CDEC80E80E9482003F
S113017080E091E00E949400809109018C9F812D80
S113018011248695869586958C9F912D112496959C
S113019096959695990F292F220F220F920F891B5E
S11301A0805D0E948B00809109018C9F912D112408
S11301B0969596959695990F292F220F220F920FB7
S11301C0891B805D0E948B008AE30E948B008091D2
S11301D008018C9F812D11248695869586958C9F88
S11301E0912D1124969596959695990F292F220F66
S11301F0220F920F891B805D0E948B008091080161
S11302008C9F912D1124969596959695990F292F4B
S1130210220F220F920F891B805D0E948B008AE3BC
S11302200E948B0080910A018C9F812D1124869558
S1130230869586958C9F912D1124969596959695E5
S1130240990F292F220F220F920F891B805D0E9484
S11302508B0080910A018C9F912D1124969596957F
S11302609695990F292F220F220F920F891B805DDB
S11302700E948B0080910A018B3338F010920A019E
S1130280809108018F5F80930801809108018B336E
S113029048F010920A0110920801809109018F5FC1
S11302A080930901809109018C3008F45ECF10928B
S11302B00A01109208011092090157CFF894FFCF58
S10B02C054696D65203D000046
S9030000FC
