:100000000C9434000C9451000C9451000C94510049
:100010000C9451000C9451000C9451000C9451001C
:100020000C9451000C9451000C9451000C946900F4
:100030000C9451000C9451000C9451000C945100FC
:100040000C9451000C9451000C9451000C945100EC
:100050000C9451000C9451000C9451000C945100DC
:100060000C9451000C94510011241FBECFEFD8E026
:10007000DEBFCDBF11E0A0E0B1E0EEE5F3E002C0ED
:1000800005900D92A231B107D9F721E0A2E1B1E0CC
:1000900001C01D92A531B207E1F70E94EC000C945B
:1000A000AD010C940000E1E8F0E080818D60808378
:1000B0001092850010928400EFE6F0E0808182606B
:1000C000808388E09DE390938900809388007894F2
:1000D00008951F920F920FB60F9211248F93809163
:1000E00014018F5F809314018F910F900FBE0F90BA
:1000F0001F9018958AB1806F8AB98BB18BB9209AFD
:100100002898219A299808959BB19F70282F207FC5
:10011000922B9BB92898299A35ED3A95F1F7000072
:100120002998EFE3FFE13197F1F700C000002BB110
:100130002F70F0E18F9FC0011124822B8BB928987A
:10014000299A35ED3A95F1F7000029988FE39FE160
:100150000197F1F700C0000008959BB19F70282F10
:10016000207F922B9BB9289A299A35ED3A95F1F781
:1001700000002998EFE3FFE13197F1F700C000009C
:100180002BB12F70F0E18F9FC0011124822B8BB90E
:10019000289A299A35ED3A95F1F7000029988FE3CE
:1001A0009FE10197F1F700C0000008950F931F939E
:1001B000CF93FC018081882359F08F01C0E00E9419
:1001C000AD00CF5FF801EC0FF11D80818111F7CFF9
:1001D000CF911F910F9108950E947A000E945300C1
:1001E00082E00E94840088E20E9484008CE00E94E9
:1001F000840081E00E94840080E80E94840080E006
:1002000091E00E94D600CDEC80EC0E9484008BE04F
:1002100091E00E94D600809113018C9F812D1124C2
:100220008695869586958C9F912D11249695969509
:100230009695990F292F220F220F920F891B805D0F
:100240000E94AD00809113018C9F912D11249695F1
:1002500096959695990F292F220F220F920F891BA1
:10026000805D0E94AD008AE30E94AD008091120182
:100270008C9F812D11248695869586958C9F912D36
:100280001124969596959695990F292F220F220F56
:10029000920F891B805D0E94AD00809112018C9F9E
:1002A000912D1124969596959695990F292F220FA9
:1002B000220F920F891B805D0E94AD008AE30E948D
:1002C000AD00809114018C9F812D11248695869517
:1002D00086958C9F912D1124969596959695990FBC
:1002E000292F220F220F920F891B805D0E94AD00E3
:1002F000809114018C9F912D112496959695969539
:10030000990F292F220F220F920F891B805D0E94C7
:10031000AD00809114018B3338F01092140180915C
:1003200012018F5F80931201809112018B3348F08C
:100330001092140110921201809113018F5F80932B
:100340001301809113018C3008F45ECF10921401D8
:0E035000109212011092130157CFF894FFCFB4
:10035E002020202020636C6F636B0054696D652034
:02036E003D0050
:00000001FF
